


ARM Macro Assembler    Page 1 


    1 00000000         ;/*
    2 00000000         ; * FILE startup_MDR32F9Qx.s
    3 00000000         ; */
    4 00000000         
    5 00000000         ; Amount of memory (in bytes) allocated for Stack
    6 00000000         ; Tailor this value to your application needs
    7 00000000         ; <h> Stack Configuration
    8 00000000         ;   <o> Stack Size (in Bytes) <0x0-0xFFFFFFFF:8>
    9 00000000         ; </h>
   10 00000000         
   11 00000000 00000400 
                       Stack_Size
                               EQU              0x00000400
   12 00000000         
   13 00000000                 AREA             STACK, NOINIT, READWRITE, ALIGN
=3
   14 00000000         Stack_Mem
                               SPACE            Stack_Size
   15 00000400         __initial_sp
   16 00000400         
   17 00000400         
   18 00000400         ; <h> Heap Configuration
   19 00000400         ;   <o>  Heap Size (in Bytes) <0x0-0xFFFFFFFF:8>
   20 00000400         ; </h>
   21 00000400         
   22 00000400 00000200 
                       Heap_Size
                               EQU              0x00000200
   23 00000400         
   24 00000400                 AREA             HEAP, NOINIT, READWRITE, ALIGN=
3
   25 00000000         __heap_base
   26 00000000         Heap_Mem
                               SPACE            Heap_Size
   27 00000200         __heap_limit
   28 00000200         
   29 00000200                 PRESERVE8
   30 00000200                 THUMB
   31 00000200         
   32 00000200         
   33 00000200         ; Vector Table Mapped to Address 0 at Reset
   34 00000200                 AREA             RESET, DATA, READONLY
   35 00000000                 EXPORT           __Vectors
   36 00000000                 EXPORT           __Vectors_End
   37 00000000                 EXPORT           __Vectors_Size
   38 00000000         
   39 00000000 00000000 
                       __Vectors
                               DCD              __initial_sp ; Top of Stack
   40 00000004 00000000        DCD              Reset_Handler ; Reset Handler
   41 00000008 00000000        DCD              NMI_Handler ; NMI Handler
   42 0000000C 00000000        DCD              HardFault_Handler ; Hard Fault 
                                                            Handler
   43 00000010 00000000        DCD              MemManage_Handler 
                                                            ; MPU Fault Handler
                                                            
   44 00000014 00000000        DCD              BusFault_Handler 
                                                            ; Bus Fault Handler
                                                            



ARM Macro Assembler    Page 2 


   45 00000018 00000000        DCD              UsageFault_Handler ; Usage Faul
                                                            t Handler
   46 0000001C 00000000        DCD              0           ; Reserved
   47 00000020 00000000        DCD              0           ; Reserved
   48 00000024 00000000        DCD              0           ; Reserved
   49 00000028 00000000        DCD              0           ; Reserved
   50 0000002C 00000000        DCD              SVC_Handler ; SVCall Handler
   51 00000030 00000000        DCD              DebugMon_Handler ; Debug Monito
                                                            r Handler
   52 00000034 00000000        DCD              0           ; Reserved
   53 00000038 00000000        DCD              PendSV_Handler ; PendSV Handler
                                                            
   54 0000003C 00000000        DCD              SysTick_Handler 
                                                            ; SysTick Handler
   55 00000040         
   56 00000040         ; External Interrupts
   57 00000040 00000000        DCD              CAN1_IRQHandler ; IRQ0
   58 00000044 00000000        DCD              CAN2_IRQHandler ; IRQ1
   59 00000048 00000000        DCD              USB_IRQHandler ; IRQ2
   60 0000004C 00000000        DCD              0           ; IRQ3  reserved
   61 00000050 00000000        DCD              0           ; IRQ4  reserved
   62 00000054 00000000        DCD              DMA_IRQHandler ; IRQ5
   63 00000058 00000000        DCD              UART1_IRQHandler ; IRQ6
   64 0000005C 00000000        DCD              UART2_IRQHandler ; IRQ7
   65 00000060 00000000        DCD              SSP1_IRQHandler ; IRQ8
   66 00000064 00000000        DCD              0           ; IRQ9  reserved
   67 00000068 00000000        DCD              I2C_IRQHandler ; IRQ10
   68 0000006C 00000000        DCD              POWER_IRQHandler ; IRQ11
   69 00000070 00000000        DCD              WWDG_IRQHandler ; IRQ12
   70 00000074 00000000        DCD              0           ; IRQ13 reserved
   71 00000078 00000000        DCD              Timer1_IRQHandler ; IRQ14
   72 0000007C 00000000        DCD              Timer2_IRQHandler ; IRQ15
   73 00000080 00000000        DCD              Timer3_IRQHandler ; IRQ16
   74 00000084 00000000        DCD              ADC_IRQHandler ; IRQ17
   75 00000088 00000000        DCD              0           ; IRQ18 reserved
   76 0000008C 00000000        DCD              COMPARATOR_IRQHandler ; IRQ19
   77 00000090 00000000        DCD              SSP2_IRQHandler ; IRQ20
   78 00000094 00000000        DCD              0           ; IRQ21 reserved
   79 00000098 00000000        DCD              0           ; IRQ22 reserved
   80 0000009C 00000000        DCD              0           ; IRQ23 reserved
   81 000000A0 00000000        DCD              0           ; IRQ24 reserved
   82 000000A4 00000000        DCD              0           ; IRQ25 reserved
   83 000000A8 00000000        DCD              0           ; IRQ26 reserved
   84 000000AC 00000000        DCD              BACKUP_IRQHandler ; IRQ27
   85 000000B0 00000000        DCD              EXT_INT1_IRQHandler ; IRQ28
   86 000000B4 00000000        DCD              EXT_INT2_IRQHandler ; IRQ29
   87 000000B8 00000000        DCD              EXT_INT3_IRQHandler ; IRQ30
   88 000000BC 00000000        DCD              EXT_INT4_IRQHandler ; IRQ31
   89 000000C0         __Vectors_End
   90 000000C0         
   91 000000C0 000000C0 
                       __Vectors_Size
                               EQU              __Vectors_End - __Vectors
   92 000000C0         
   93 000000C0                 AREA             |.text|, CODE, READONLY
   94 00000000         
   95 00000000         ; Reset handler
   96 00000000         Reset_Handler
                               PROC



ARM Macro Assembler    Page 3 


   97 00000000                 EXPORT           Reset_Handler             [WEAK
]
   98 00000000                 IMPORT           SystemInit
   99 00000000                 IMPORT           __main
  100 00000000 4809            LDR              R0, =SystemInit
  101 00000002 4780            BLX              R0
  102 00000004 4809            LDR              R0, =__main
  103 00000006 4700            BX               R0
  104 00000008                 ENDP
  105 00000008         
  106 00000008         ; Dummy Exception Handlers (infinite loops which can be 
                       modified)
  107 00000008         
  108 00000008         NMI_Handler
                               PROC
  109 00000008                 EXPORT           NMI_Handler                [WEA
K]
  110 00000008 E7FE            B                .
  111 0000000A                 ENDP
  113 0000000A         HardFault_Handler
                               PROC
  114 0000000A                 EXPORT           HardFault_Handler          [WEA
K]
  115 0000000A E7FE            B                .
  116 0000000C                 ENDP
  118 0000000C         MemManage_Handler
                               PROC
  119 0000000C                 EXPORT           MemManage_Handler          [WEA
K]
  120 0000000C E7FE            B                .
  121 0000000E                 ENDP
  123 0000000E         BusFault_Handler
                               PROC
  124 0000000E                 EXPORT           BusFault_Handler           [WEA
K]
  125 0000000E E7FE            B                .
  126 00000010                 ENDP
  128 00000010         UsageFault_Handler
                               PROC
  129 00000010                 EXPORT           UsageFault_Handler         [WEA
K]
  130 00000010 E7FE            B                .
  131 00000012                 ENDP
  132 00000012         SVC_Handler
                               PROC
  133 00000012                 EXPORT           SVC_Handler                [WEA
K]
  134 00000012 E7FE            B                .
  135 00000014                 ENDP
  137 00000014         DebugMon_Handler
                               PROC
  138 00000014                 EXPORT           DebugMon_Handler           [WEA
K]
  139 00000014 E7FE            B                .
  140 00000016                 ENDP
  141 00000016         PendSV_Handler
                               PROC
  142 00000016                 EXPORT           PendSV_Handler             [WEA
K]



ARM Macro Assembler    Page 4 


  143 00000016 E7FE            B                .
  144 00000018                 ENDP
  145 00000018         SysTick_Handler
                               PROC
  146 00000018                 EXPORT           SysTick_Handler            [WEA
K]
  147 00000018 E7FE            B                .
  148 0000001A                 ENDP
  149 0000001A         
  150 0000001A         Default_Handler
                               PROC
  151 0000001A         
  152 0000001A         
  153 0000001A                 EXPORT           CAN1_IRQHandler            [WEA
K]
  154 0000001A                 EXPORT           CAN2_IRQHandler            [WEA
K]
  155 0000001A                 EXPORT           USB_IRQHandler             [WEA
K]
  156 0000001A                 EXPORT           DMA_IRQHandler             [WEA
K]
  157 0000001A                 EXPORT           UART1_IRQHandler           [WEA
K]
  158 0000001A                 EXPORT           UART2_IRQHandler           [WEA
K]
  159 0000001A                 EXPORT           SSP1_IRQHandler            [WEA
K]
  160 0000001A                 EXPORT           I2C_IRQHandler             [WEA
K]
  161 0000001A                 EXPORT           POWER_IRQHandler           [WEA
K]
  162 0000001A                 EXPORT           WWDG_IRQHandler            [WEA
K]
  163 0000001A                 EXPORT           Timer1_IRQHandler          [WEA
K]
  164 0000001A                 EXPORT           Timer2_IRQHandler          [WEA
K]
  165 0000001A                 EXPORT           Timer3_IRQHandler          [WEA
K]
  166 0000001A                 EXPORT           ADC_IRQHandler             [WEA
K]
  167 0000001A                 EXPORT           COMPARATOR_IRQHandler      [WEA
K]
  168 0000001A                 EXPORT           SSP2_IRQHandler            [WEA
K]
  169 0000001A                 EXPORT           BACKUP_IRQHandler          [WEA
K]
  170 0000001A                 EXPORT           EXT_INT1_IRQHandler        [WEA
K]
  171 0000001A                 EXPORT           EXT_INT2_IRQHandler        [WEA
K]
  172 0000001A                 EXPORT           EXT_INT3_IRQHandler        [WEA
K]
  173 0000001A                 EXPORT           EXT_INT4_IRQHandler        [WEA
K]
  174 0000001A         
  175 0000001A         CAN1_IRQHandler
  176 0000001A         CAN2_IRQHandler
  177 0000001A         USB_IRQHandler



ARM Macro Assembler    Page 5 


  178 0000001A         DMA_IRQHandler
  179 0000001A         UART1_IRQHandler
  180 0000001A         UART2_IRQHandler
  181 0000001A         SSP1_IRQHandler
  182 0000001A         I2C_IRQHandler
  183 0000001A         POWER_IRQHandler
  184 0000001A         WWDG_IRQHandler
  185 0000001A         Timer1_IRQHandler
  186 0000001A         Timer2_IRQHandler
  187 0000001A         Timer3_IRQHandler
  188 0000001A         ADC_IRQHandler
  189 0000001A         COMPARATOR_IRQHandler
  190 0000001A         SSP2_IRQHandler
  191 0000001A         BACKUP_IRQHandler
  192 0000001A         EXT_INT1_IRQHandler
  193 0000001A         EXT_INT2_IRQHandler
  194 0000001A         EXT_INT3_IRQHandler
  195 0000001A         EXT_INT4_IRQHandler
  196 0000001A         
  197 0000001A E7FE            B                .
  198 0000001C         
  199 0000001C                 ENDP
  200 0000001C         
  201 0000001C                 ALIGN
  202 0000001C         
  203 0000001C         ;*******************************************************
                       ************************
  204 0000001C         ; User Stack and Heap initialization
  205 0000001C         ;*******************************************************
                       ************************
  206 0000001C                 IF               :DEF:__MICROLIB
  213 0000001C         
  214 0000001C                 IMPORT           __use_two_region_memory
  215 0000001C                 EXPORT           __user_initial_stackheap
  216 0000001C         
  217 0000001C         __user_initial_stackheap
  218 0000001C         
  219 0000001C 4804            LDR              R0, =  Heap_Mem
  220 0000001E 4905            LDR              R1, =(Stack_Mem + Stack_Size)
  221 00000020 4A05            LDR              R2, = (Heap_Mem +  Heap_Size)
  222 00000022 4B06            LDR              R3, = Stack_Mem
  223 00000024 4770            BX               LR
  224 00000026         
  225 00000026 00 00           ALIGN
  226 00000028         
  227 00000028                 ENDIF
  228 00000028         
  229 00000028                 END
              00000000 
              00000000 
              00000000 
              00000400 
              00000200 
              00000000 
Command Line: --debug --xref --diag_suppress=9931 --cpu=Cortex-M3 --apcs=interw
ork --depend=.\objects\startup_mdr32f9qx.d -o.\objects\startup_mdr32f9qx.o -I.\
RTE\Device\MDR1986BE92 -I.\RTE\_MDR32F9Qx -IC:\Users\kscor\AppData\Local\Arm\Pa
cks\Keil\MDR1986BExx\1.5.3\Libraries\CMSIS\CM3\CoreSupport -IC:\Users\kscor\App
Data\Local\Arm\Packs\Keil\MDR1986BExx\1.5.3\Libraries\CMSIS\CM3\DeviceSupport\M



ARM Macro Assembler    Page 6 


DR32F9Qx\inc -IC:\Users\kscor\AppData\Local\Arm\Packs\Keil\MDR1986BExx\1.5.3\Li
braries\MDR32F9Qx_StdPeriph_Driver\inc --predefine="__UVISION_VERSION SETA 535"
 --predefine="_RTE_ SETA 1" --predefine="USE_MDR32F9Q2_Rev1 SETA 1" --predefine
="_RTE_ SETA 1" --list=.\listings\startup_mdr32f9qx.lst RTE\Device\MDR1986BE92\
startup_MDR32F9Qx.s



ARM Macro Assembler    Page 1 Alphabetic symbol ordering
Relocatable symbols

STACK 00000000

Symbol: STACK
   Definitions
      At line 13 in file RTE\Device\MDR1986BE92\startup_MDR32F9Qx.s
   Uses
      None
Comment: STACK unused
Stack_Mem 00000000

Symbol: Stack_Mem
   Definitions
      At line 14 in file RTE\Device\MDR1986BE92\startup_MDR32F9Qx.s
   Uses
      At line 220 in file RTE\Device\MDR1986BE92\startup_MDR32F9Qx.s
      At line 222 in file RTE\Device\MDR1986BE92\startup_MDR32F9Qx.s

__initial_sp 00000400

Symbol: __initial_sp
   Definitions
      At line 15 in file RTE\Device\MDR1986BE92\startup_MDR32F9Qx.s
   Uses
      At line 39 in file RTE\Device\MDR1986BE92\startup_MDR32F9Qx.s
Comment: __initial_sp used once
3 symbols



ARM Macro Assembler    Page 1 Alphabetic symbol ordering
Relocatable symbols

HEAP 00000000

Symbol: HEAP
   Definitions
      At line 24 in file RTE\Device\MDR1986BE92\startup_MDR32F9Qx.s
   Uses
      None
Comment: HEAP unused
Heap_Mem 00000000

Symbol: Heap_Mem
   Definitions
      At line 26 in file RTE\Device\MDR1986BE92\startup_MDR32F9Qx.s
   Uses
      At line 219 in file RTE\Device\MDR1986BE92\startup_MDR32F9Qx.s
      At line 221 in file RTE\Device\MDR1986BE92\startup_MDR32F9Qx.s

__heap_base 00000000

Symbol: __heap_base
   Definitions
      At line 25 in file RTE\Device\MDR1986BE92\startup_MDR32F9Qx.s
   Uses
      None
Comment: __heap_base unused
__heap_limit 00000200

Symbol: __heap_limit
   Definitions
      At line 27 in file RTE\Device\MDR1986BE92\startup_MDR32F9Qx.s
   Uses
      None
Comment: __heap_limit unused
4 symbols



ARM Macro Assembler    Page 1 Alphabetic symbol ordering
Relocatable symbols

RESET 00000000

Symbol: RESET
   Definitions
      At line 34 in file RTE\Device\MDR1986BE92\startup_MDR32F9Qx.s
   Uses
      None
Comment: RESET unused
__Vectors 00000000

Symbol: __Vectors
   Definitions
      At line 39 in file RTE\Device\MDR1986BE92\startup_MDR32F9Qx.s
   Uses
      At line 35 in file RTE\Device\MDR1986BE92\startup_MDR32F9Qx.s
      At line 91 in file RTE\Device\MDR1986BE92\startup_MDR32F9Qx.s

__Vectors_End 000000C0

Symbol: __Vectors_End
   Definitions
      At line 89 in file RTE\Device\MDR1986BE92\startup_MDR32F9Qx.s
   Uses
      At line 36 in file RTE\Device\MDR1986BE92\startup_MDR32F9Qx.s
      At line 91 in file RTE\Device\MDR1986BE92\startup_MDR32F9Qx.s

3 symbols



ARM Macro Assembler    Page 1 Alphabetic symbol ordering
Relocatable symbols

.text 00000000

Symbol: .text
   Definitions
      At line 93 in file RTE\Device\MDR1986BE92\startup_MDR32F9Qx.s
   Uses
      None
Comment: .text unused
ADC_IRQHandler 0000001A

Symbol: ADC_IRQHandler
   Definitions
      At line 188 in file RTE\Device\MDR1986BE92\startup_MDR32F9Qx.s
   Uses
      At line 74 in file RTE\Device\MDR1986BE92\startup_MDR32F9Qx.s
      At line 166 in file RTE\Device\MDR1986BE92\startup_MDR32F9Qx.s

BACKUP_IRQHandler 0000001A

Symbol: BACKUP_IRQHandler
   Definitions
      At line 191 in file RTE\Device\MDR1986BE92\startup_MDR32F9Qx.s
   Uses
      At line 84 in file RTE\Device\MDR1986BE92\startup_MDR32F9Qx.s
      At line 169 in file RTE\Device\MDR1986BE92\startup_MDR32F9Qx.s

BusFault_Handler 0000000E

Symbol: BusFault_Handler
   Definitions
      At line 123 in file RTE\Device\MDR1986BE92\startup_MDR32F9Qx.s
   Uses
      At line 44 in file RTE\Device\MDR1986BE92\startup_MDR32F9Qx.s
      At line 124 in file RTE\Device\MDR1986BE92\startup_MDR32F9Qx.s

CAN1_IRQHandler 0000001A

Symbol: CAN1_IRQHandler
   Definitions
      At line 175 in file RTE\Device\MDR1986BE92\startup_MDR32F9Qx.s
   Uses
      At line 57 in file RTE\Device\MDR1986BE92\startup_MDR32F9Qx.s
      At line 153 in file RTE\Device\MDR1986BE92\startup_MDR32F9Qx.s

CAN2_IRQHandler 0000001A

Symbol: CAN2_IRQHandler
   Definitions
      At line 176 in file RTE\Device\MDR1986BE92\startup_MDR32F9Qx.s
   Uses
      At line 58 in file RTE\Device\MDR1986BE92\startup_MDR32F9Qx.s
      At line 154 in file RTE\Device\MDR1986BE92\startup_MDR32F9Qx.s

COMPARATOR_IRQHandler 0000001A

Symbol: COMPARATOR_IRQHandler
   Definitions
      At line 189 in file RTE\Device\MDR1986BE92\startup_MDR32F9Qx.s
   Uses



ARM Macro Assembler    Page 2 Alphabetic symbol ordering
Relocatable symbols

      At line 76 in file RTE\Device\MDR1986BE92\startup_MDR32F9Qx.s
      At line 167 in file RTE\Device\MDR1986BE92\startup_MDR32F9Qx.s

DMA_IRQHandler 0000001A

Symbol: DMA_IRQHandler
   Definitions
      At line 178 in file RTE\Device\MDR1986BE92\startup_MDR32F9Qx.s
   Uses
      At line 62 in file RTE\Device\MDR1986BE92\startup_MDR32F9Qx.s
      At line 156 in file RTE\Device\MDR1986BE92\startup_MDR32F9Qx.s

DebugMon_Handler 00000014

Symbol: DebugMon_Handler
   Definitions
      At line 137 in file RTE\Device\MDR1986BE92\startup_MDR32F9Qx.s
   Uses
      At line 51 in file RTE\Device\MDR1986BE92\startup_MDR32F9Qx.s
      At line 138 in file RTE\Device\MDR1986BE92\startup_MDR32F9Qx.s

Default_Handler 0000001A

Symbol: Default_Handler
   Definitions
      At line 150 in file RTE\Device\MDR1986BE92\startup_MDR32F9Qx.s
   Uses
      None
Comment: Default_Handler unused
EXT_INT1_IRQHandler 0000001A

Symbol: EXT_INT1_IRQHandler
   Definitions
      At line 192 in file RTE\Device\MDR1986BE92\startup_MDR32F9Qx.s
   Uses
      At line 85 in file RTE\Device\MDR1986BE92\startup_MDR32F9Qx.s
      At line 170 in file RTE\Device\MDR1986BE92\startup_MDR32F9Qx.s

EXT_INT2_IRQHandler 0000001A

Symbol: EXT_INT2_IRQHandler
   Definitions
      At line 193 in file RTE\Device\MDR1986BE92\startup_MDR32F9Qx.s
   Uses
      At line 86 in file RTE\Device\MDR1986BE92\startup_MDR32F9Qx.s
      At line 171 in file RTE\Device\MDR1986BE92\startup_MDR32F9Qx.s

EXT_INT3_IRQHandler 0000001A

Symbol: EXT_INT3_IRQHandler
   Definitions
      At line 194 in file RTE\Device\MDR1986BE92\startup_MDR32F9Qx.s
   Uses
      At line 87 in file RTE\Device\MDR1986BE92\startup_MDR32F9Qx.s
      At line 172 in file RTE\Device\MDR1986BE92\startup_MDR32F9Qx.s

EXT_INT4_IRQHandler 0000001A

Symbol: EXT_INT4_IRQHandler



ARM Macro Assembler    Page 3 Alphabetic symbol ordering
Relocatable symbols

   Definitions
      At line 195 in file RTE\Device\MDR1986BE92\startup_MDR32F9Qx.s
   Uses
      At line 88 in file RTE\Device\MDR1986BE92\startup_MDR32F9Qx.s
      At line 173 in file RTE\Device\MDR1986BE92\startup_MDR32F9Qx.s

HardFault_Handler 0000000A

Symbol: HardFault_Handler
   Definitions
      At line 113 in file RTE\Device\MDR1986BE92\startup_MDR32F9Qx.s
   Uses
      At line 42 in file RTE\Device\MDR1986BE92\startup_MDR32F9Qx.s
      At line 114 in file RTE\Device\MDR1986BE92\startup_MDR32F9Qx.s

I2C_IRQHandler 0000001A

Symbol: I2C_IRQHandler
   Definitions
      At line 182 in file RTE\Device\MDR1986BE92\startup_MDR32F9Qx.s
   Uses
      At line 67 in file RTE\Device\MDR1986BE92\startup_MDR32F9Qx.s
      At line 160 in file RTE\Device\MDR1986BE92\startup_MDR32F9Qx.s

MemManage_Handler 0000000C

Symbol: MemManage_Handler
   Definitions
      At line 118 in file RTE\Device\MDR1986BE92\startup_MDR32F9Qx.s
   Uses
      At line 43 in file RTE\Device\MDR1986BE92\startup_MDR32F9Qx.s
      At line 119 in file RTE\Device\MDR1986BE92\startup_MDR32F9Qx.s

NMI_Handler 00000008

Symbol: NMI_Handler
   Definitions
      At line 108 in file RTE\Device\MDR1986BE92\startup_MDR32F9Qx.s
   Uses
      At line 41 in file RTE\Device\MDR1986BE92\startup_MDR32F9Qx.s
      At line 109 in file RTE\Device\MDR1986BE92\startup_MDR32F9Qx.s

POWER_IRQHandler 0000001A

Symbol: POWER_IRQHandler
   Definitions
      At line 183 in file RTE\Device\MDR1986BE92\startup_MDR32F9Qx.s
   Uses
      At line 68 in file RTE\Device\MDR1986BE92\startup_MDR32F9Qx.s
      At line 161 in file RTE\Device\MDR1986BE92\startup_MDR32F9Qx.s

PendSV_Handler 00000016

Symbol: PendSV_Handler
   Definitions
      At line 141 in file RTE\Device\MDR1986BE92\startup_MDR32F9Qx.s
   Uses
      At line 53 in file RTE\Device\MDR1986BE92\startup_MDR32F9Qx.s
      At line 142 in file RTE\Device\MDR1986BE92\startup_MDR32F9Qx.s



ARM Macro Assembler    Page 4 Alphabetic symbol ordering
Relocatable symbols


Reset_Handler 00000000

Symbol: Reset_Handler
   Definitions
      At line 96 in file RTE\Device\MDR1986BE92\startup_MDR32F9Qx.s
   Uses
      At line 40 in file RTE\Device\MDR1986BE92\startup_MDR32F9Qx.s
      At line 97 in file RTE\Device\MDR1986BE92\startup_MDR32F9Qx.s

SSP1_IRQHandler 0000001A

Symbol: SSP1_IRQHandler
   Definitions
      At line 181 in file RTE\Device\MDR1986BE92\startup_MDR32F9Qx.s
   Uses
      At line 65 in file RTE\Device\MDR1986BE92\startup_MDR32F9Qx.s
      At line 159 in file RTE\Device\MDR1986BE92\startup_MDR32F9Qx.s

SSP2_IRQHandler 0000001A

Symbol: SSP2_IRQHandler
   Definitions
      At line 190 in file RTE\Device\MDR1986BE92\startup_MDR32F9Qx.s
   Uses
      At line 77 in file RTE\Device\MDR1986BE92\startup_MDR32F9Qx.s
      At line 168 in file RTE\Device\MDR1986BE92\startup_MDR32F9Qx.s

SVC_Handler 00000012

Symbol: SVC_Handler
   Definitions
      At line 132 in file RTE\Device\MDR1986BE92\startup_MDR32F9Qx.s
   Uses
      At line 50 in file RTE\Device\MDR1986BE92\startup_MDR32F9Qx.s
      At line 133 in file RTE\Device\MDR1986BE92\startup_MDR32F9Qx.s

SysTick_Handler 00000018

Symbol: SysTick_Handler
   Definitions
      At line 145 in file RTE\Device\MDR1986BE92\startup_MDR32F9Qx.s
   Uses
      At line 54 in file RTE\Device\MDR1986BE92\startup_MDR32F9Qx.s
      At line 146 in file RTE\Device\MDR1986BE92\startup_MDR32F9Qx.s

Timer1_IRQHandler 0000001A

Symbol: Timer1_IRQHandler
   Definitions
      At line 185 in file RTE\Device\MDR1986BE92\startup_MDR32F9Qx.s
   Uses
      At line 71 in file RTE\Device\MDR1986BE92\startup_MDR32F9Qx.s
      At line 163 in file RTE\Device\MDR1986BE92\startup_MDR32F9Qx.s

Timer2_IRQHandler 0000001A

Symbol: Timer2_IRQHandler
   Definitions



ARM Macro Assembler    Page 5 Alphabetic symbol ordering
Relocatable symbols

      At line 186 in file RTE\Device\MDR1986BE92\startup_MDR32F9Qx.s
   Uses
      At line 72 in file RTE\Device\MDR1986BE92\startup_MDR32F9Qx.s
      At line 164 in file RTE\Device\MDR1986BE92\startup_MDR32F9Qx.s

Timer3_IRQHandler 0000001A

Symbol: Timer3_IRQHandler
   Definitions
      At line 187 in file RTE\Device\MDR1986BE92\startup_MDR32F9Qx.s
   Uses
      At line 73 in file RTE\Device\MDR1986BE92\startup_MDR32F9Qx.s
      At line 165 in file RTE\Device\MDR1986BE92\startup_MDR32F9Qx.s

UART1_IRQHandler 0000001A

Symbol: UART1_IRQHandler
   Definitions
      At line 179 in file RTE\Device\MDR1986BE92\startup_MDR32F9Qx.s
   Uses
      At line 63 in file RTE\Device\MDR1986BE92\startup_MDR32F9Qx.s
      At line 157 in file RTE\Device\MDR1986BE92\startup_MDR32F9Qx.s

UART2_IRQHandler 0000001A

Symbol: UART2_IRQHandler
   Definitions
      At line 180 in file RTE\Device\MDR1986BE92\startup_MDR32F9Qx.s
   Uses
      At line 64 in file RTE\Device\MDR1986BE92\startup_MDR32F9Qx.s
      At line 158 in file RTE\Device\MDR1986BE92\startup_MDR32F9Qx.s

USB_IRQHandler 0000001A

Symbol: USB_IRQHandler
   Definitions
      At line 177 in file RTE\Device\MDR1986BE92\startup_MDR32F9Qx.s
   Uses
      At line 59 in file RTE\Device\MDR1986BE92\startup_MDR32F9Qx.s
      At line 155 in file RTE\Device\MDR1986BE92\startup_MDR32F9Qx.s

UsageFault_Handler 00000010

Symbol: UsageFault_Handler
   Definitions
      At line 128 in file RTE\Device\MDR1986BE92\startup_MDR32F9Qx.s
   Uses
      At line 45 in file RTE\Device\MDR1986BE92\startup_MDR32F9Qx.s
      At line 129 in file RTE\Device\MDR1986BE92\startup_MDR32F9Qx.s

WWDG_IRQHandler 0000001A

Symbol: WWDG_IRQHandler
   Definitions
      At line 184 in file RTE\Device\MDR1986BE92\startup_MDR32F9Qx.s
   Uses
      At line 69 in file RTE\Device\MDR1986BE92\startup_MDR32F9Qx.s
      At line 162 in file RTE\Device\MDR1986BE92\startup_MDR32F9Qx.s




ARM Macro Assembler    Page 6 Alphabetic symbol ordering
Relocatable symbols

__user_initial_stackheap 0000001C

Symbol: __user_initial_stackheap
   Definitions
      At line 217 in file RTE\Device\MDR1986BE92\startup_MDR32F9Qx.s
   Uses
      At line 215 in file RTE\Device\MDR1986BE92\startup_MDR32F9Qx.s
Comment: __user_initial_stackheap used once
34 symbols



ARM Macro Assembler    Page 1 Alphabetic symbol ordering
Absolute symbols

Heap_Size 00000200

Symbol: Heap_Size
   Definitions
      At line 22 in file RTE\Device\MDR1986BE92\startup_MDR32F9Qx.s
   Uses
      At line 26 in file RTE\Device\MDR1986BE92\startup_MDR32F9Qx.s
      At line 221 in file RTE\Device\MDR1986BE92\startup_MDR32F9Qx.s

Stack_Size 00000400

Symbol: Stack_Size
   Definitions
      At line 11 in file RTE\Device\MDR1986BE92\startup_MDR32F9Qx.s
   Uses
      At line 14 in file RTE\Device\MDR1986BE92\startup_MDR32F9Qx.s
      At line 220 in file RTE\Device\MDR1986BE92\startup_MDR32F9Qx.s

__Vectors_Size 000000C0

Symbol: __Vectors_Size
   Definitions
      At line 91 in file RTE\Device\MDR1986BE92\startup_MDR32F9Qx.s
   Uses
      At line 37 in file RTE\Device\MDR1986BE92\startup_MDR32F9Qx.s
Comment: __Vectors_Size used once
3 symbols



ARM Macro Assembler    Page 1 Alphabetic symbol ordering
External symbols

SystemInit 00000000

Symbol: SystemInit
   Definitions
      At line 98 in file RTE\Device\MDR1986BE92\startup_MDR32F9Qx.s
   Uses
      At line 100 in file RTE\Device\MDR1986BE92\startup_MDR32F9Qx.s
Comment: SystemInit used once
__main 00000000

Symbol: __main
   Definitions
      At line 99 in file RTE\Device\MDR1986BE92\startup_MDR32F9Qx.s
   Uses
      At line 102 in file RTE\Device\MDR1986BE92\startup_MDR32F9Qx.s
Comment: __main used once
__use_two_region_memory 00000000

Symbol: __use_two_region_memory
   Definitions
      At line 214 in file RTE\Device\MDR1986BE92\startup_MDR32F9Qx.s
   Uses
      None
Comment: __use_two_region_memory unused
3 symbols
387 symbols in table
